:100000000C94F50A0C94220B0C94220B0C94220BEA
:100010000C94220B0C94220B0C94220B0C94220BAC
:100020000C94220B0C94220B0C94220B0C94220B9C
:100030000C94CA4C0C94220B0C94220B0C94220BA3
:100040000C94220B0C9457280C94220B0C94220B2A
:100050000C94220B0C94220B0C94220B0C94220B6C
:100060000C94220B0C94A14C0C94774C0C94220B06
:100070000C94220B0C94220B0C94220B0C94220B4C
:100080000C94220B0C94220B0C94220B0C94220B3C
:100090000C94220B0C94220B0C94220B0C94220B2C
:1000A0000C94220B0C94220B0C94220B0C94220B1C
:1000B0000C94220B0C94220B0C94220B0C94220B0C
:1000C0000C94220B0C94220B0C94220B0C94220BFC
:1000D0000C94220B0C94220B0C94220B0C94220BEC
:1000E0000C94220B0C9420260C942A2B0C945F3732
:1000F0000C94DD220C9431340C94D8450C94623667
:100100000C94C1410C942C1E0C94C6300C9491415B
:100110000C9451250C94B13A0C94C9410C94883834
:100120000C949C270C94EB360C94C6430C946C31C5
:100130000C94661F0C94CE360C9443270C946F4697
:100140000C94C83D0C94AA430C94ED250C94FC3DF2
:100150000C942C1D0C942B1E0C948E370C949D36F5
:100160000C94F71B0C9449240C94B9460C947625F6
:100170000C94AD420C94D9460C94851C0C94E31954
:100180000C94E51D0C946F1A0C94E11C0C94511FF7
:100190000C9464240C9462230C94E81B0C948B350F
:1001A0000C942A330C941A200C943D1C0C94F83CAB
:1001B0000C949E250C94DF240C94EF440C94323F55
:1001C0000C940C240C9422380C948F220C94A226AC
:1001D0000C9499340C944E220C94AF290C94E24365
:1001E0000C94F31A0C941C220C94D2220C94351DFE
:1001F0000C94E43B0C94A52B0C94AF1D0C940A2E8C
:100200000C94453C0C94552A0C94F32F0C94DA175B
:100210000C94063A0C9467420C94BB460C94052A45
:100220000C94F7370C94351B0C9480450C94A73331
:100230000C9483240C94E32F0C942D390C940E3ED3
:100240000C94D0440C94BC3A0C942E350C94A224FB
:100250000C94B42D0C94E72B0C9474270C941A2551
:100260000C94AC2D0C94CB3E0C941F360C948A2B22
:100270000C94102C0C94F41B0C94AC3C0C948F1B21
:100280000C94B4230C94D5170C94173B0C94614533
:100290000C94D2340C946D3F0C94A63A0C94491EE5
:1002A0000C943B3E0C94C4270C94403D0C94DB35DD
:1002B0000C94F83A0C94923E0C94363B0C940C3906
:1002C0000C9417200C945E180C94253D0C946B4CE8
:1002D0000C94C73A0C94372A0C94B6370C94F1233B
:1002E0000C9460380C94921F0C94C9210C945146C4
:1002F0000C94D5390C940D1D0C9400310C94221BD8
:100300000C94002B0401010100010404040400000A
:1003100000040401010101010404010104000004BE
:1003200004040404000004040404040000000004A5
:1003300004000000000400000000000000040000B1
:100340000000000400020000040004000004070490
:10035000040000040404000002020000000204077C
:100360000004000404000004000202040404040465
:100370000000040004040404040404000400020354
:100380000400040400040004000004000400000051
:1003900000000000000001000201028B03F71B02B5
:1003A000000001000000E81B03000001000000F451
:1003B0001B040000010000003D1C050000010000BE
:1003C00000221B06000100018B14351B07000001F1
:1003D000000000F31A08000100018A038F1B0900C6
:1003E00000010000002B1E0A000201018614511FAB
:1003F0000B0003010387032C1E0C0002010285037E
:10040000661F0D000200028B03D5170E00020002CA
:1004100072145E180F000300038703D84510000212
:10042000000285035146110005000580036F461246
:100430000002000272145F3713000100018A03B644
:1004400037140002000285038E3715000200027285
:1004500014CE3616000400047C03E31917000500CF
:10046000057703DA1718000100018A03C83D190057
:100470000800086F033B3E1A000300036C03923E22
:100480001B000200027214323F1C000200028503AE
:100490000E3E1D000400046A14CB3E1E0001000144
:1004A0008A03FC3D1F000800086403AD42200002DF
:1004B000000285036742210004000374140A2E22FF
:1004C000000300027714E32F23000300027714F3E4
:1004D0002F24000400046E14C94125000100018A84
:1004E00003C141260003000361039141270004007A
:1004F000035E03C921280003000277141A20290093
:100500000400046E14B42D2A000100018A03AC2DEE
:100510002B000300035B032C1D2C00030003791444
:10052000351D2D000600065503AF1D2E00020002EA
:10053000721499342F0005000550032E3530000445
:1005400000048014E11C310002000272140D1D32FF
:10055000000400034D03313433000500054803D285
:100560003434000100018A03552A35000400035B7E
:1005700014002B360005000543032A2B3700040026
:10058000046E14052A38000300036103372A39007A
:100590000300027714D0443A000300027714614547
:1005A0003B000600063D03EF443C000300027714C5
:1005B000AA433D000300027714C6433E000800082A
:1005C0003503E2433F000600063D03804540000539
:1005D00000053003102C41000600062A03A52B421B
:1005E000000300036C03E72B43000100018A03E4CE
:1005F0003B44000200028503F83C45000200027201
:1006000014173B46000100018A03363B47000200F5
:10061000028503AC3C48000400042603453C490025
:100620000100018A03A2264A000200028503C73A9C
:100630004B000200027214F83A4C000100018A03D8
:1006400020264D00020002850343274E00020002CF
:10065000721483244F000100018A030C245000020D
:10066000000285039E2551000200027214492452A3
:10067000000400042203ED2553000100018A03B4A5
:100680002354000200028503DF2455000200027299
:1006900014F1235600030003671476255700010068
:1006A000018A03DD2258000200028503A2245900BA
:1006B0000100018A031A255A000600061C03622362
:1006C0005B000300036C0351255C000200027214FE
:1006D00064245D0003000277142D395E00040004D9
:1006E0006A14063A5F000300036C03D53960000307
:1006F00000036C03F737610004000418032238621A
:1007000000070007110360386300020002721488BA
:100710003864000100018A039C2765000700070A6E
:1007200003C42766000600060403003167000200C8
:10073000027214C630680000010000006B4C6900B2
:1007400000000500000078DA9D5A7B6FDBC811FFBE
:100750002AAC80A0BDC276454AA22417F9C30F2552
:100760007113273ECB6E0E2D0A8226571211BE8EB4
:100770004BFAD143BE7BE7B12F52720EBD0086B853
:10078000BBB3BBB3B3F3F8CD6C7E1BC5753D3A1D4F
:100790007DCCB3BA16CDE868F4D065791A3D8A46A7
:1007A00066552961689B24A7DE5FDE5F5CFCE4CDB3
:1007B0004EA62763EF212BBB36CB25F67EBEF7CEA8
:1007C00055F3272F3809C29360EC87633F98C152D5
:1007D0004955147199C222BF8DE254FA41308EE21C
:1007E000B68D935D9457711A2522CFA3BAA91E84A2
:1007F0005765E9DB378937E88EB87B74BA981D8D69
:10080000E23CAF92B8A54EE9255557B63C863CB7B9
:100810002D301BC5C937BD921D9F860E419A6A8235
:10082000BA92F493956FDF745EDDC19E5DCD139C2B
:10083000157FED44F362D60406BE217523641BB513
:1008400059F24D72AB6DE25216591BE95DBDAC0415
:1008500009AAFDE720895CC44D24775D9B564FE5CE
:10086000E83440E1949B6C1B29B9E82D649DA943B1
:100870007B69DCC65123E2F4256226E1A8A133EFAF
:10088000399F4C67FBF346A7E1D25295715E6DA389
:10089000AC34A7562B4D2C07EAA89A829B91233F94
:1008A000BB1C758AA6BF584F7633CB619A6DB336A1
:1008B000CEA3AA6B07131EE3BC137444B189BBBC5F
:1008C0008D4C47113F4769D7C42DE81EF1E9CFCDC4
:1008D0007A0234A9ADEADE5A496FF3C06EBE4BA767
:1008E000D3F9C288B5914A869ED01FE9D47CCDCC7D
:1008F0005768BEE6E64BE4F18BB96C90AE95DCEE42
:1009000079EE3FEB2DB6710652DBC56529723A1BB5
:100910009C5BAF2193FC9BBD44BB4016249EBEB59F
:10092000A9D39D14C178395DE8A581CC5CEE7C61CA
:10093000C8F234F1433F3844B50C8654D153D6EE57
:100940004011DA877D7A0FBB993F9CEBDBB9990C9C
:10095000D227AB1932EA7F46ED4B4DF7068470F68D
:10096000ACD61DC0A7C3C1615B97958C36590EFAF2
:1009700064D83E0E6666565177CB60363E28034BF0
:10098000558AAACE9E453ED030B21D99FD1778D922
:1009900075E0B0DA0835CBB15829A00B2ECCDEEBD0
:1009A0006C6A16AD9F8A035A9BBC8015DB3594CECA
:1009B000EEBAA11643CF9E1A4F2DC7F6D87A7DA462
:1009C00096224162A9C4604D0E0C7BC807FAB93665
:1009D0007B14D12EDBEE68C264E1D283D56F7371D4
:1009E000C0A398317B4DCB596FA6F6508726ABA19B
:1009F000A890DBB76FFE0A4E7D32E9CD4505439DD9
:100A00004FA4D1E989B55ED9CE97D6CD25F28069BC
:100A10007812344A7FBE9449D4373D2F29D2686872
:100A20008D334752ADC010665887A6D2692FCD1AB4
:100A3000FDC98E99882D55974BE12C1AD883B53B6B
:100A4000D11415F8BDFAA044DD612BD4D0FAA1B6BB
:100A500048BAB831AAD43C477B4ED36B4D272A6A9B
:100A60009B15828F66EDB06D501E56ACE3A3512AE4
:100A70001E3A50FF0A82F752B760952DA93EDF8FCC
:100A80006FC8308A7855938A06F78320D8B0730DE3
:100A900034C15393B5628F02759C098115518866E4
:100AA0002BCAE425422F0C4C40177BE46857156293
:100AB0002F46CAB8A85D7B516D1321FB311458B77E
:100AC00051808F6B64DC64DB2D38093884ACD845E9
:100AD000A19BD09B5384069EE25618010560CB9BD8
:100AE0000C621F78808865E8254DC2FEFB68B4055E
:100AF000E3273E41C8AA4534E059B8D9D5780B6000
:100B0000B647231548C0404B7062456AE2247EB365
:100B10009C437F408657E039515C91C17550C4F8C1
:100B2000A31808B6412FC897A9F449902D7AD81771
:100B3000E542C5F62513A28F0347ED7A506892FF70
:100B40000361E12FDEB390ACF453DFCE924FEE445D
:100B50003051639669EC28B06334BDA5C2292FA536
:100B6000B46A28882908224B45D9661B80569B0DFC
:100B7000EC48E66D100770A2A3168C75AF2858BB21
:100B8000830D77559E52E3C72AE389A6A97A2AB432
:100B90000426869276B7F93F177C0D1BA21E81535F
:100BA00024B11C07F3FD3D0FA9EF71B0D827C47B1A
:100BB0000198B9B56E28DE88F6850D4A62307BFB58
:100BC000261B76C6CFD8D9C68D323C494D75986D57
:100BD0001317C4247D44E03BB57566C803188A8E9C
:100BE000AEA4D686BD59E08C74756A596750BDEBCA
:100BF0009CCB9E819FE0330E906E4F4EA0DDD301C3
:100C00001DC9A4B3B164E12CD483BE8385C2C58061
:100C10006EB8503837044374FC079D57619D970A9E
:100C2000FEB6455706D84824DF1C4C3DF1350F036E
:100C3000486D38A82BB8F9E1FE4EDC9BE9057A2017
:100C40007428D4718F6A2889F9520F0F11E7609DBB
:100C5000F97C48B8B754A82906A874C8D16240479F
:100C60004637D0FF85E1AB0F40875CF97DB23D9EF2
:100C7000CCE9075872B8CE7440B7B79051BD3D74F7
:100C8000F503B30730956DF8BA9766075E792024AF
:100C900038B111F021C0F1CA268EDAF5B48E1B00EE
:100CA0007420FEA58ED285AC339D38949A993D2A46
:100CB0001714FB66CA00131B72A3E9E0D7A79A18A2
:100CC000519567730BD13090D02E7E47E1027EC1E3
:100CD000CF04E04C088EA3CB99AA6F5A8043F470DE
:100CE000439801D78A34EE21068925303ED923A2C4
:100CF000231088376BF6103D4C0A7952299E150B4C
:100D0000001C4DFCCA1AC6163E136981FC4E7600C3
:100D10006241566CAE837319BFEB954B17FD838C04
:100D2000C46683895A046850E50398AD0F96505302
:100D30004C30E06694A5CF2AB71A5338A8A4AF7EEA
:100D400003F53B51BF5376F38825874B3BC6B8B7B5
:100D5000308EF1D2F8E5AB45502636B9C06AC8C628
:100D6000FA341B0C9613A673C289333A99EAD11E42
:100D70006EC12E855B8A2A150E7E8129A19DD20720
:100D80002D45262B0D558A4A6687F20DBDDC10FFD6
:100D9000878ACDD70F3201BBE08CE647C070B6E83A
:100DA000531DC685B3395251EE1221F884189A3971
:100DB000570B6AB9B4040479D14439861F442B30E7
:100DC00003365699474FD604C80C60E4600EF7AF5F
:100DD00066A310155E3960750B4BD7BA198DA8AB99
:100DE00046C1697651D43686209EEB0CD0870BDE47
:100DF0009766A5C1295C22100A438B43CECAB1F382
:100E0000E9779D256195F1ECF222BA3EFB05731F4F
:100E10004CE2CEEFD7D1CDD5E735FAEDD1E9E8E612
:100E20007C7274731EC09F3F7206DB271ABC1C1FA6
:100E3000DD5CE2C0C5A72F171FA377B7AB9FD125F5
:100E40008CE9DFD1E8FAE21EA8E2B610DB3898851B
:100E50006320BCF97ACDBB05188E6F5717ABAB7FFB
:100E6000AEA2AF579F2FBF7CC56B0BB073BDBA85C9
:100E70004EE64234599CE35E2BD86B857BC1E8D5A6
:100E8000D9A7E8FCECFE1297E1ADD6776777EB685F
:100E90007D7FBDFE1946D62B1C09B17B7573B3BA95
:100EA0008DBEDCDC5D5D5FFD6B7519DD7FC63E468A
:100EB000D47A147FA3F32F771FA2D5E57B98EA7F1E
:100EC000C75CA983EC8DCA11548C75CB37D806B09A
:100ED0004EA89BC434FECEE81D88708CA4837DBDD3
:100EE0001A0F8E7CBA5A07977050D81C3E27971F4E
:100EF0007833302E1CBD391B8F4EFF3D3E5AFC0708
:100F000004758EDF0BFEBEC06F70B5D4B8C406F892
:100F10007D6AACB001BE8E1AEFB03155F3DF53439A
:100F20002DF0011B33B5C03FB03157733ED2366A46
:100F3000CE276AE09CEF3DEFA4B88FFDC96442CC98
:100F4000C772369ECE539240D1860B3FA4EC163F1B
:100F500083505216D8E66236F68307B809B59892E0
:100F60008E9118BAC30C6DA381241CBCA5D2468FE8
:100F7000B476C330902B94673915753D9DA0A61C9F
:100F8000AD2EE2D22BAB161C2EFC551B082C4F05A8
:100F900047158F8CC97BDA65F0CD4621BD1ACC1A76
:100FA00076E270A8E7765210F4687C6F53351EE83D
:100FB000E7DF753B93389A523F7549CED360EA9F7D
:100FC0005B0CC79ECCB6C010A455718BD4B1629394
:100FD0006315E7DC8A582229DA225706B8970237C8
:100FE0002D0D9C8AD2D3E518331FACE1821F04BCBF
:100FF0003A6EC0163887A2A45B0F340200846CA935
:10100000A8FF2E86F3A65E5B79E4C2B0564A9E879F
:1010100033E9775C42D361302B53F1ECE57183EE19
:10102000048E50F6AA6A5CC4FEF00B2265ACD3FEB7
:101030004DD5697BB7E3F9C7537E2DB80A2EBCCFD7
:1010400067171F19A7630B2CF2F64EF78DDDBEDB79
:10105000D5D9A51A40C7860377EC43D9675E310C12
:10106000F37495DD3E16301AE2B0A7A9D48B09D5EA
:10107000256C1F90A1C8E242C091B93CA5078B0A1C
:101080007084929A87054F748976D894474D41941D
:10109000CB037BE32A8D33FB4F1CD6E1A23DB61A6E
:1010A0002C18E95E2C4C6AC78BDEDAE95710199DC3
:1010B000859A385DF40928ADB767925CC8D3143DB2
:1010C0000CECAE02B7711D3FE38D2DB44019035CEB
:1010D0000B2963B842512610D3B562E1402651EB8B
:1010E0002524606997637D0C2623BEF3545821158F
:1010F000108F026F02A1DDEB1376719392512A6A71
:101100002C7F5EA3F809F37AF0D56CF2EA8941F3FB
:1011100067B0C6D8E3E3A01B20A78878C01D00FBFA
:10112000E4817030232B6B4696FCA0424325726A03
:10113000BBE7147E8C95D64D85597C01ACC778B63B
:101140000DC016E012842DD0C120A2B915EA506856
:1011500054E801601B14355C035A1C86B035550FEA
:10116000943934021F01713696C6D766EE9EE0BCF4
:10117000A72CCF21D027B055AFF4CDD0C5CE34C2E7
:10118000FBC10C84BA6B70247CBDC41B52644557F0
:10119000E83E6D37C8B0AE57D3031B2C46AE87DC94
:1011A000A8FBD6B656BEA8AD2A6F13D3C1F9D09806
:1011B00071DCB9DA86D204422AE8735CBD2351E1BE
:1011C0004CC038525068B82F655723CE11EC972881
:1011D00018E0C3D0D7B84D7669B56501FF894BC11A
:1011E000F47009A1B32BBFC1C2E8D4F85DCBE99775
:1011F00076002790F980D793E0ACD1B80141492F10
:10120000917CF5F89E88011C6D8276EF2C379C84CA
:10121000D9513628CE414C2F5A6E7F8E7D04602FD7
:101220005E953938FE4760297EC8B53F37025D625A
:1012300071F559A451D1E5A78EDE63C17A504AC237
:10124000406298C0BA11F2DB6AFF888553C4E0B9E6
:1012500037E01608E991D7C420F5F49B72515B6220
:10126000ED10DD37AB7102C3740C3793212500AB51
:10127000005640A3B31220B58EB60479555D9E206A
:10128000395E2E850E7EB1E8D5C7DC41AC651D0008
:10129000A5B813DB2D3E81A880C75E01A1388083ED
:1012A000BD67024407801C27FE6236230CA21A2168
:1012B00081106E8433D25D6884E11CBE27DF09840F
:1012C00025A016307F844FEFEF6F3E3D4E4694349D
:1012D000D7E00B05BFB4EBAA563F91A3A4F650DAB2
:1012E0007E8C315CBF77F7A6C44ECD8AF33DCE58D5
:1012F0008EF1B98992739B1F1CFBE60DCA43A0486F
:101300005F944250DD1DFBB406517A066A13997250
:10131000004EA7A722AA85FD886F35457D44CEFEE5
:1013200033FBD821C178CDDBC5B1EF3C16F456DED6
:101330005505F8F7FD3DDCB7089C3FB175F7484B04
:10134000DA2925515B0966692BDB0EA9297173D255
:101350007782A45803B722F186F051490541D3ABF7
:101360008532E7005A651D794C0E9490DDC9B03B7B
:10137000CFD75998BB8E5313415463AABD4AB63A8E
:1013800033EF92846AFE2826F05B705CF7FDE998E3
:10139000EB29E8C5002E43DAEDE6BF12314B998800
:1013A00041B9D847CCE4CEE995E26CD94915CB7464
:1013B00096C9151B77C9878E4260CAB55440ACE008
:1013C000C822EDABA4563AD8CB46105DFB7DE52A8A
:1013D0000ED638F614C2ADD5B99A11F44B0ABFA790
:1013E00048E4E610ED12C63F46C8877C496B00B260
:1013F0002BD48FFC553D2F8C6D9D605044E0C23C3A
:10140000966A101DF6DC51FF4A0F7A898EE321DFC0
:10141000F3D49616F6CF804505E27FEE560BACD29C
:1014200025717948DDF69F5190D300BD2D2514FC20
:10143000D0DDF54697E00DD5FF52026FF8383EF14A
:101440002727E3E3603E39DECED2781C8431A477CF
:10145000DFFF0760475FCC110D00000402070400A6
:101460000002000204000704040004000004040059
:101470000000040404040704070400020404040038
:10148000040400040401070400040200000000003A
:101490000000060002028100100367148000400370
:1014A0005B147F001D065E147E00400364147D0003
:1014B0000F0367147C0014046A147B0017046E1475
:1014C0007A000A027214790040027714780040030F
:1014D0007414770040027714760040027714750088
:1014E00010037914740011047C1473001104801427
:1014F00072000D02841471000B018B147000400106
:1015000086146F00120487146E000B018B146D009B
:1015100010028C146C0015038E140000400291140C
:101520006B000E0293146A0009019514690006000D
:10153000000020002300260029002C002F0032008C
:10154000000100000301060109010F4700440045A6
:101550000080013548004400450020010D880080CE
:1015600000810080000E8A008000810020000F8C26
:10157000008000810008000CB300B000B1008003BF
:101580003EB400B000B10020032398009000910009
:101590008000249A00900091002000259C0090007B
:1015A000910008003BA800A000A10080003CAA0018
:1015B000A000A10020003DAC00A000A10008005B3D
:1015C00028012001210180005C2A01200121012045
:1015D000005D2C0120012101080028292A2B2C2D37
:1015E0002E2F505152535455565711241FBECFEF32
:1015F000D1E2DEBFCDBF00E00CBF14BE0FB6F89441
:10160000A8958091600088618093600010926000CE
:101610000FBE12E0A0E0B2E0E2E8FCE900E00BBFA0
:1016200002C007900D92A033B107D9F723E0A0E3E1
:10163000B2E001C01D92A23AB207E1F70E948D29E3
:101640000C943F4E0C940000CF93DF93CDB7DEB7E0
:10165000A1970FB6F894DEBF0FBECDBF0E947A29C6
:101660006B017C0180912602882311F40C94BE1337
:101670000E947A29C61AD70AE80AF90AF8948091D2
:101680002602882361F08FEF809327028093260241
:1016900078940000F894809126028111F9CF789413
:1016A0000E947A2997018601060F171F281F391FEC
:1016B0000A8F1B8F2C8F3D8F81E0809326028091B3
:1016C0006302882309F443C0109263028FEF898379
:1016D0008E010F5F1F4F34EEE32E34E1F32E6CEFDB
:1016E0007DE3C8010E94AB1B6C01892B81F1D601FF
:1016F00056968C9182FFF3CF0E947A29F894F601D6
:1017000037892689422F4B7F468B78949F938F93FE
:101710007F936F931F923F9321701F922F93898124
:101720001F928F93FF92EF920E94973F2DB73EB783
:10173000245F3F4F0FB6F8943EBF0FBE2DBF6CEF36
:101740007DE3C8010E94AB1B6C01892B81F680915F
:101750006402882339F1109264028FEF89838E012D
:101760000F5F1F4F2EEDE22E24E1F22E67E672E4AA
:10177000C8010E94AB1BFC01892BA1F0958D868DC1
:101780009813F4CFF894858D968D891711F40C94E5
:10179000E914789467E672E4C8010E94AB1BFC016F
:1017A000892B61F780915302882321F11092530213
:1017B0008FEF89838E010F5F1F4F9CECE92E94E120
:1017C000F92E6DE07DE1C8010E94AB1B009791F0FE
:1017D000DC0158962C912F3FA1F7F894FC01268547
:1017E000211196C778946DE07DE1C8010E94AB1B82
:1017F000009771F780915E02882309F440C010922F
:101800005E028FEF89838E010F5F1F4F86ECE82EFB
:1018100084E1F82E62ED74E3C8010E94AB1B0097CF
:1018200071F1DC011E962C911E9723FFF3CFF894E3
:10183000FC012685277F268778949C01265E3F4FF2
:101840003F932F9350968C918695869586951F92FF
:101850008F9389811F928F93FF92EF920E94973FFF
:10186000EDB7FEB738960FB6F894FEBF0FBEEDBFCA
:1018700062ED74E3C8010E94AB1B009791F6809162
:101880005C02882309F44BC010925C028FEF8983BD
:101890008E010F5F1F4FBAEBEB2EB4E1FB2E67E317
:1018A0007AE2C8010E94AB1BFC01892BC1F1848D37
:1018B00080FFF5CFF8949481258136814781548942
:1018C00065897689A789B08DD18CC28CB38C848DC3
:1018D0008E7F848F7894BF92CF92DF92BF93AF9325
:1018E0007F936F935F934F933F932F939F93898140
:1018F0001F928F93FF92EF920E94973F2DB73EB7B2
:10190000205F3F4F0FB6F8943EBF0FBE2DBF67E379
:101910007AE2C8010E94AB1BFC01892B41F6809141
:101920005D02882309F456C010925D028FEF8B8709
:10193000AE01455F5F4F1A01FCE09F2EA7E08A2EA3
:1019400067EE7BE2C1010E94AB1B5C01892B09F4AD
:1019500041C0D50159968C91599780FFF1CFF894E9
:10196000F5014480558066807780818D8E7F818FE0
:10197000789458968C91813009F4F1C308F4CFC360
:10198000823009F41BC48330D9F6CB8419821A82C1
:101990009E012F5F3F4F42E061E0F5018489958908
:1019A0000E94372E09811A81102701271027F02F56
:1019B000F670EF2E20E030E0B301A201C5010E94D5
:1019C0005B2C67EE7BE2C1010E94AB1B5C01892BA3
:1019D00009F0BFCF809160028823F9F01092600275
:1019E0008FEF8B878E01055F1F4F180149E0B42EE2
:1019F0000A50110952EFC52EDD24DA9406C0D70132
:101A00001E968C911E9780FD19C467E17BE3C1018E
:101A10000E94AB1B7C01892B91F780916102882386
:101A200029F1109261028FEF8F87FE0131964F01ED
:101A30002E01F7E04F0E511CE8EA6E2EF7E03F2E24
:101A4000AFEA2A2E5E0108E0A00EB11C06C0D70145
:101A50001F968C911F9780FD68C465E47CE3CE01DE
:101A60000F960E94AB1B7C01892B89F78091620243
:101A70008823D1F0109262028FEF8D87FE013D9690
:101A80006F0162E7962E74E7B72E06C0D701529613
:101A90008C91529780FDAAC468EF7AE3C6010E9438
:101AA000AB1B7C01892B91F7809156028823D9F0DA
:101AB000109256028FEF8D878E01035F1F4F6801D2
:101AC00030E7932E42E7B42E06C0D70152968C9190
:101AD000529780FD33C563E874E2C6010E94AB1BD8
:101AE0007C01892B91F7809157028823C9F01092CD
:101AF00057028FEF89838E010F5F1F4FCC24C39451
:101B0000D12C06C0D70119968C91199781117CC5EB
:101B10006DEE75E2C8010E94AB1B7C01892B91F729
:101B2000809158028823B9F0109258028FEF8B876A
:101B30008E01055F1F4F180106C0D80151968C9188
:101B400051978111B9C466E775E2C1010E94AB1BD0
:101B50008C01892B91F780915902882309F493C055
:101B6000109259028FEF8B878E01055F1F4F18016E
:101B700064E674E2C1010E94AB1B8C01892B09F45D
:101B800082C0D8011E968C911E9780FFF1CFBB8436
:101B9000AE014F5F5F4F68E11C968D919C911D9740
:101BA0000E948E3A89819A8198278927F894F801B2
:101BB00096859E7F9687789483FFDACFC388D12C51
:101BC0007601B4E1EB0EF11CE00EF11EA70160E01E
:101BD000848595850E948E3AA7014E5F5F4F61E034
:101BE000D8011C968D919C911D970E948E3AF80108
:101BF00083898C5F838B4801FCE48F0E911CD40198
:101C0000AC90A2FE36C0F7012181828190E0A0E075
:101C1000B0E0BA2FA92F982F8827A22B2381822BDF
:101C2000F801EC0DFD1D24896C017D01F22AC1141F
:101C3000D104E104F0E1FF0608F008C60E947A2909
:101C4000A1FE02C00C942716F801E15BFF4F408013
:101C50005180628073804C145D046E047F0410F424
:101C60000C9439168A2D8D7FF4018083D801539608
:101C70008C9190E0C0970CF47BCF6B2DC8010F9630
:101C80000E94E63875CF80915F02882309F47FC0F7
:101C900010925F028FEF8B87FE013B961F01772426
:101CA0007A948E010F5F1F4F198B088B9E012A5F5C
:101CB0003F4F3B8B2A8BAE01475F5F4F5D8B4C8B59
:101CC0008DE1482E25E0622E33E0532E65ED79E359
:101CD000C1010E94AB1B6C01892B09F458C0D601CD
:101CE0001E968C9182FFF2CFF894F60144815581C3
:101CF00066817781F1881686118A7894808591852E
:101D0000A285B3858A019B01081B190B2A0B3B0B8B
:101D10000E8B1F8B288F398F86010E5E1F4FD601C9
:101D2000FF2089F056968C91F601E80FF11D778A15
:101D3000108E118E8D5FF601868B813310F5FA942B
:101D4000D601F110EFCF1F961C91112309F474C135
:101D5000113009F4ACC1123009F4CAC5133009F4CA
:101D600059C6143009F49CC6D60156968C9190E061
:101D7000C1970CF4ABCF6B85C60142960E94E63842
:101D8000A1CF6B85C8010E94E638FA94D9CFA895F7
:101D900080917E02882329F080E480936000109275
:101DA0007E0210913F03112309F46EC000913002AE
:101DB00000FD12C0153008F467C0D0907F02BD2C22
:101DC0008BEF8D0D8C3308F40FC5EEE7BE1609F4CA
:101DD000ACC7016000933002412F50E06EE770E025
:101DE0008FE792E00E94104E009739F00E7F00932B
:101DF00030028F57924011E0180F01FD0CC0902F58
:101E000092609093300280E497E09F938F930E94BA
:101E1000973F0F900F90D12ECC24CA9420E00D2D27
:101E200010E019C0822F90E04E2D50E0481B590B56
:101E3000B801680F791F61587D4F81589D4F0E94EE
:101E4000264E109226022E2D8FB7F89490913F03C4
:101E5000F91661F08FBFF0903F03EF2CED1811F7EA
:101E60008FB7F89490913F03F912F4CFE0923F03BB
:101E70008FBFF1E0CF1208C080E497E09F938F936B
:101E80000E94973F0F900F900E947A296B017C016E
:101E90000A8D1B8D2C8D3D8D601B710B820B930B5E
:101EA0008090390290903A02A0903B02B0903C02A0
:101EB0001FEF811A910AA10AB10A80923902909209
:101EC0003A02A0923B02B0923C0240903502509000
:101ED00036026090370270903802460E571E681E18
:101EE000791E40923502509236026092370270920B
:101EF00038026115710521E08207910508F044C49C
:101F00009B01AC010E94D54CDC01CB0181509F4F5D
:101F1000AF4FBF4F892F9A2FAB2FBB274091310274
:101F2000509132026091330270913402840F951FF8
:101F3000A61FB71F84179507A607B70718F48FEFDA
:101F40009FEFDC018093310290933202A093330221
:101F5000B093340240914F0250915002609151026F
:101F60007091520297018601041B150B260B370B4B
:101F7000B901A8014115544B644C744008F472CB6C
:101F8000BF93AF939F938F937F926F925F924F9285
:101F9000BF92AF929F928F9284E195E19F938F932E
:101FA0000E94973F2DB73EB7225F3F4F0FB6F89480
:101FB0003EBF0FBE2DBF80914F0290915002A09165
:101FC0005102B0915202C816D906EA06FB0698F4EF
:101FD00080914B0290914C02A0914D02B0914E0223
:101FE0000196A11DB11D80934B0290934C02A093CA
:101FF0004D02B0934E02C0924F02D0925002E09236
:102000005102F0925202109231021092320210925A
:10201000330210923402109235021092360210925E
:102020003702109238021092390210923A0210923E
:102030003B0210923C0216CB82E389831A820E94F3
:102040007A294B015C019E012F5F3F4F42E061E026
:10205000F601848595850E94372E0E947A29DC013D
:10206000CB0188199909AA09BB0981329340A105BE
:10207000B10508F046C0898187FD73C32A81E22E2D
:10208000F12C9701220F331FE82EF12CC701982F56
:102090008827990F7901E82AF92A950184014E8948
:1020A0005F89688D798DC6010E94413A5DCE8FE7C8
:1020B00089838EEF8A830E947A296E8F7F8F88A30F
:1020C00099A39E012F5F3F4F42E060E0D6011C962E
:1020D0008D919C911D970E94372E0E947A294B0169
:1020E0005C01DC01CB010E8D1F8D28A139A1801B65
:1020F000910BA20BB30B81329340A105B10508F4FB
:10210000B3C3D60156968C91F601E80FF11D778A7C
:1021100092E0908F118E8D5FF601868B25CECB8459
:1021200019821A821B821C829E012F5F3F4F44E05E
:1021300061E0F501848995890E94372E69817A8151
:102140008B819C810E94E54CF62FF770EF2E8B015E
:102150009C01B301A201C5010E945B2CF1CB0B8550
:102160000E8B99821A821B821C829E012F5F3F4F29
:1021700044E061E0848995890E94372E69817A81E3
:102180008B819C810E94E54C6B017C01BFE0B9838F
:102190001A829E012F5F3F4F42E061E0F501848982
:1021A00095890E94372E970186013327CE88EA80D1
:1021B000B301A201C5010E945B2CC2CBCB8481E09C
:1021C00089831A821B821C829E012F5F3F4F43E04E
:1021D00061E0848995890E94372E69817A818B819B
:1021E0009C810E94E54CBB27A92F982F872F8C013B
:1021F0009D01222733270E8B1F8B288F398F8982D1
:102200001A829E012F5F3F4F42E061E0D501549654
:102210008D919C9155970E94372E8A81982F9C7F93
:102220008E898170E92EE82A0E891F89288D398DC3
:10223000B301A201C5010E945B2C82CBAB84F801E3
:102240002B2D11922A95E9F7C982980149E061E0A6
:102250001C968D919C911D970E94372ED701539605
:102260008C9190E0FC017496EE0DFF1D3B81232FB5
:10227000207FE1F0203FD1F0D482D382D282D1827C
:10228000F701E80FF91FD48AF70183898B5F838BED
:102290008F3208F017C3D7011E968C911E978E7F40
:1022A0001E968C93C7010E94D93CAFCB2D81422F43
:1022B000407F09F0C7C25F81452F407F11F0403F4A
:1022C000D9F648854039C1F649854F77942EB0E25A
:1022D000B41790F2D701A80FB91F4A8154964C93B6
:1022E0008C8181838E818283852F90E03F71AC0148
:1022F000440F551F42955295507F5427407F5427D5
:10230000342B3383880F991F880F991F80762F7184
:10231000822B8483D70153968C9153978B5F53966E
:102320008C938F3208F4D4C2CEC27F8455968C91A0
:10233000C82ED12CB6E1CB0ED11CCE0CDF1CF70180
:102340009685911143C2D401E32D1D92EA95E9F7D8
:102350002B861C866982D70150968C91813009F4B6
:1023600048C4940147E061E0F701848595850E94A7
:10237000372E9E01255F3F4F42E061E0D7011C965A
:102380008D919C911D970E94372EF70180891C85A5
:10239000012F813009F4E5C30F731074FE013296EA
:1023A000D60181918D93EA15FB05D9F7D701559692
:1023B0008C9155978A5F55968C938E3208F0AEC3F8
:1023C000112331F0F701838994890196948B838BD3
:1023D000002309F403C2D7011F968C911F978E7FAB
:1023E0001F968C93C7010E948D3C37CBAD845096CD
:1023F0008D919C915197C09770F1B9828701085EC9
:102400001F4F20E3AE014F5F5F4F61E0F70184850E
:1024100095850E948F200E94CF1B80E3D70157969D
:102420008C93579750968D919C915197C097519648
:102430009C938E9350976A2DC70143960E94E6386D
:10244000F70180899189C09778F11092260281E086
:102450008093620221CBD7011C968D919C911D9790
:102460009B868E010F5F1F4F22E0AE01455F5F4FDD
:1024700061E00E948F200E94CF1B89818F7190E0C4
:10248000982F88272A81822BF701268537852817E0
:10249000390710F497878687D70151969C938E93BE
:1024A0005097C0970CF0A9CFF70182898E7F828B5D
:1024B000C7010E942427F0CABB8419821A821B829A
:1024C0009E012F5F3F4F43E061E01F968D919C91ED
:1024D00050970E94372EF801118A8981CA80D12C29
:1024E000E12CF12CFE2CED2CDC2CCC24E82A8B8169
:1024F000C82AE7FE02C0FF24FA94F801E55BFF4F0B
:1025000080819181009721F0B701A6010E949A492C
:10251000D80157968C91F801E80FF11DC08ED18E2D
:10252000E28EF38E8C5FF801878B803308F40BCB3F
:102530006B2DC80143960E94E63805CBAD845096BA
:102540008D919C915197C09770F1B9828701085E77
:102550001F4F20E3AE014F5F5F4F61E0F7018485BD
:1025600095850E948F200E94CF1B80E3D70157964C
:102570008C93579750968D919C915197C0975196F7
:102580009C938E9350976A2DC70143960E94E6381C
:10259000F70180899189C09778F11092260281E035
:1025A0008093560298CAD7011C968D919C911D97D5
:1025B0009B868E010F5F1F4F22E0AE01455F5F4F8C
:1025C00061E00E948F200E94CF1B89818F7190E073
:1025D000982F88272A81822BF7012685378528178F
:1025E000390710F497878687D70151969C938E936D
:1025F0005097C0970CF0A9CFF70182898E7F828B0C
:10260000C7010E94242767CAB9801896AC90189712
:102610002A2D30E052960D90BC91A02DF7019488A0
:10262000458856889789295E3F4F40E050E0BA01BF
:102630006B2CF201792C5A2CF89490830000000046
:1026400090838C917894440F551F661F771F8721C4
:10265000812C912C54018394811103C0812C912CE5
:102660005401482959296A297B292150310920F729
:10267000B62CA52CF894D70119962C911997199678
:102680001C9278942A013B010A2C04C0769467942A
:10269000579447940A94D2F767FE02C077247A943D
:1026A000C60101C0880FAA94EAF7815090E0A0E02B
:1026B000B0E0482359236A237B2384179507A60794
:1026C000B70709F431C220E030E040E050E8D7011C
:1026D0001E962D933D934D935C93519740E830E0C7
:1026E00020E090E0D7015C968C91F701E80FF11D96
:1026F000958F268F378F40A38C5FF701848F8033AF
:1027000008F406CA6B2DC70148960E94E63800CA35
:10271000318D308F7894AC01415F5F4F5F934F9361
:102720001F922F93FC0187891F928F9389811F929B
:102730008F93FF92EF920E94973F2DB73EB7265F8F
:102740003F4F0FB6F8943EBF0FBE2DBF3AC82A893F
:102750003B89E217F30709F0CFC19E81981709F46E
:1027600064C2D60156968C91F601E80FF11D778A66
:10277000508E118E8D5FF601868BF6CACA8EDB8E67
:10278000EC8EFD8E0C945C0B6115710530E18307B6
:10279000910508F0D4CB8B019C0101501F4F2F4FA6
:1027A0003F4F5527432F322F212F0E94D54CDC015C
:1027B000CB0140913102509132026091330270910D
:1027C0003402840F951FA61FB71FB4CB913009F4B4
:1027D000D7C18A5F858B8E3208F09EC11092260287
:1027E000F1E0F093610239C9C09080028C2D807FA6
:1027F000803109F0EACA1D1508F446CB8D2D90E012
:10280000FC01E258FD4F20812E3709F0DECAFC01A1
:10281000E458FD4F1F01FC01E358FD4F9081D101A9
:102820008C91292F30E07901F82A6DEF6D0D8FE73B
:1028300092E00E949029E816F90609F478C2B09057
:102840007F02C3CA403F09F017CD35CDD4011C9299
:10285000F801E25BFF4F60813497808191810E9493
:10286000FD3EF801838905CA80EC89831A829E01A6
:102870002F5F3F4F42E061E0D6011C968D919C9105
:102880001D970E94372E2981EA80922F9E25892F3D
:1028900082958F709827892F869586958927982FFE
:1028A0009695892780FDB5C126FF09C2F601868964
:1028B000E80FF11D778A608E118E8D5FD6015696D6
:1028C0008C9352CA912C6A2DC7010F960E94E6384C
:1028D000BEE1B91508F064C3F701818992890196B8
:1028E000928B818B1092260281E0809360028DC8CA
:1028F000D6011C96ED91FC911D971481F280038105
:1029000040E06F2D702F812F0E94A4300E947A2901
:102910004B015C01B0E18B0E911CA11CB11C0E940B
:102920007A292B2D86169706A806290B27FFF7CFA5
:10293000F89441E06F2D702F812F0E94A4300E94E7
:102940007A294B015C0178948AE0E889F98911922F
:102950008A95E9F784E8898383E28A839E012F5F61
:102960003F4F4AE061E0D6011C968D919C911D97E6
:102970000E94372EFE01339685E09191892728E049
:1029800030E004C0880F2150310939F087FFFACFB9
:10299000880F842521503109C9F70C891D89E0175A
:1029A000F10759F7809590E02A8530E08217930768
:1029B00009F0D7CE898584FF66C08B8187FD8AC1E7
:1029C000D60156968C91F601E80FF11D778A94E0B6
:1029D000A0CB5489658990892189328943898F5F89
:1029E000858F78946F935F934F933F932F939F932B
:1029F00089811F928F93FF92EF920E94973F4DB76C
:102A00005EB7465F5F4F0FB6F8945EBF0FBE4DBF17
:102A10000C94B60B83E889831A821B820E947A2960
:102A20004B015C019E012F5F3F4F43E061E0D60107
:102A30001C968D919C911D970E94372E0E947A2999
:102A40009B01AC01281939094A095B0949015A015E
:102A500031E2831633E09306A104B10408F051CBB0
:102A60003A812B81532F5227452F42954F7054277F
:102A7000452F469546955427452F4695452740FDB9
:102A8000BBC021FF0BC1D60156968C91F601E80F11
:102A9000F11D778A608E118E8D5FF601868B64C979
:102AA00086E0EAE2F2E0DE01119601900D928A954D
:102AB000E1F70E947A294B015C019E012F5F3F4F95
:102AC00046E061E0D6011C968D919C911D970E9475
:102AD000372E0E947A29AB01BC01DB01CA0188199B
:102AE0009909AA09BB0981329340A105B10508F0F3
:102AF00008CBFE01339680E09191892728E030E0F1
:102B000005C0880F2150310909F421CE87FFF9CF84
:102B1000880F07E08027F6CF00E010E0672DC7019F
:102B200041960E94E6384CCC21FD1DC0F701468538
:102B3000578560897189411551056105710509F055
:102B40002AC2F701E05BFF4F80819181009721F05D
:102B5000B301A2010E949A49942D252D362D472DAF
:102B6000C1CD00721ACC20E030E040E050E4D70143
:102B70001E962D933D934D935C93519740E4AFCDBA
:102B8000F8E2FE87D70150968C91813009F484C019
:102B9000BFE2BD87840126E0AE01425F5F4F61E086
:102BA000F701848595850E948F200E94CF1B8E019E
:102BB000055F1F4F21E0AE01435F5F4F61E0D7012A
:102BC0001C968D919C911D970E948F200E94CF1B77
:102BD000F70180891B85012F813009F45BC00F73D9
:102BE0001074D401F6018D918193A415B505D9F720
:102BF000DDCBB8EEB983B5CBD60156968C91F601F4
:102C0000E80FF11D778A108F118E8D5FF601868B8C
:102C1000ABC8F6018689E80FF11D778A508E118EB8
:102C20008D5FD60156968C939FC88D8181FD2BCFE9
:102C3000EB80FC80FE24EF24FE248A019B014E8958
:102C40005F89688D798DC6010E94413A8DC8F8016F
:102C5000ED5AFF4F4080518062807380292F6415A8
:102C600075058605270927FD02C00C94240E0C94D7
:102C7000360EF801ED5AFF4F608371838283938390
:102C8000369760813397808191810E94FD3E80E07C
:102C90000C94340E0072A4CF6E867ACF432F50E08E
:102CA000542F44272C7F7A01E22A8B019C014E8904
:102CB0005F89688D798DC6010E94413A55C8822F7F
:102CC00090E0982F8827990F990FB4E0EB9E700140
:102CD0001124E1C90E891F89288D398D801A910A26
:102CE000A20AB30A11E5811615E59106A104B10403
:102CF00008F042C12C8130E0220F331F90E0982F62
:102D00008827990F822B932BD60156963C91F6017A
:102D1000E30FF11D2F8126952F73278B808F918FC5
:102D20003D5FF601368B0C94B40E11E074C8802F11
:102D30008D7F8093300280910802C81229C181E002
:102D40008C0D8F70806180930802B1E82B16B2E081
:102D50003B0609F008F4FAC001E812E08EE3E82E21
:102D600087E0F82E99E0C92E8DB69EB6D8012C9139
:102D700027FDB4C00F5F1F4F30E02115310509F466
:102D800004C1F701859194912817390708F0FDC017
:102D9000A901440F551F440F551F440F551F420FE3
:102DA000531FFA01E157FC4FE4918DB79EB7A4E0A1
:102DB000EA9F8019910911240FB6F8949EBF0FBEA7
:102DC0008DBF0196FA01EF56FC4F6491FA01EE5661
:102DD000FC4F45915491FA01460F511DBA01AC01C7
:102DE0009F8A8E8A9F8F8E8F6E177F0709F488C007
:102DF0002016310608F46FC0A491A53028F1A73041
:102E000009F069C02801BFEF4B1A5B0AD8016C902A
:102E10008201060D111D2016310608F45CC0712CCC
:102E2000812C912CDA016D927D928D929C92139758
:102E3000612C712C14964D925D926D927C92179735
:102E4000485F5F4F3196D0CF5A0184E0A80EB11C85
:102E500048019FEF891A990AD8011C91912F9F77F9
:102E6000492E512C612C712C012F0076003609F46B
:102E700040C017FF6FC084010F5F1F4FD80111972B
:102E80008C91440C551C661C771C440C551C661C0C
:102E9000771C440C551C661C771C440C551C661C86
:102EA000771C440C551C661C771C440C551C661C76
:102EB000771C440C551C661C771C982F9F77492A59
:102EC00087FDDACFDA014D925D926D927C92139775
:102ED000A501319689CF87E00E9493492F77B0E80A
:102EE0002B9F90011124F8018181282B0E5F1F4F29
:102EF00044CFB0EE4B2A55245A94652C762CB9CF8A
:102F00008E889F888E8D9F8D40912802442351F09A
:102F1000C29EF001C39EF00D1124E057FC4FE491D6
:102F2000E0FF1AC0C29EF001C39EF00D1124EC56C2
:102F3000FC4F25913491F90119950FB6F8949EBE76
:102F40000FBE8DBE0215130508F40ECFCC24C3941A
:102F50000C940E0F8401B6CF809129021F928F939B
:102F6000E6E2F5E1FF93EF930E94973F0FB6F894E6
:102F70009EBE0FBE8DBEE6CFD60156968C91F60151
:102F8000E80FF11D778A91E0C4C885E00E9493495B
:102F90001D2D0C94030F942F252F362F472FA2CBD6
:102FA000F1E0F91508F49ECC76C9FC0164818081BA
:102FB0000C9422280F931F93CF93DF938C014DE243
:102FC00050E06AED77E1FC0180810E949C31EC01C8
:102FD000F801848518160CF041C084E08CA764E0E9
:102FE00084810E9422286A8F7B8F8C8F60E0F80199
:102FF00080850E9422286D8F7E8F8F8F80E090E0E9
:10300000A0E0B0EC88A399A3AAA3BBA3F801808990
:103010009189A289B3898E8B9F8BA88FB98F6BE022
:1030200070E0CE0184960E942D328E899F89A88DF2
:10303000B98D8997A105B10548F08FE69AE19B8388
:103040008A83DF91CF911F910F9108958CA58063A2
:103050008CA7DF91CF911F910F910895811104C02A
:103060006CA56470F801BCCF80E18CA760E0F8012A
:1030700084810E9422286A8F7B8F8C8F60E0F80108
:1030800080850E9422286D8F7E8F8F8F80E090E058
:10309000A0E0B0EC88A399A3AAA3BBA3F801808900
:1030A0009189A289B3898E8B9F8BA88FB98F6BE092
:1030B00070E0CE0184960E942D32BFCF8F929F92F6
:1030C000AF92BF92FF920F931F93CF93DF938C0128
:1030D0006FE676E4FC0180810E94CB31EC010E9416
:1030E000DC468F8D98A1892B09F058C0F801048126
:1030F0001BA1FF24F394002339F16C897D898E890B
:103100004F2D0E94A43021E001111CC014FB882720
:1031100080F991E08927281741F08F89988DA98D32
:10312000BA8D892B8A2B8B2B89F410711F291BA335
:10313000DF91CF911F910F91FF90BF90AF909F9023
:103140008F90089520E0E2CFF12CD7CF0E947A290A
:103150008F88988CA98CBA8CDC01CB01880D991DC5
:10316000AA1DBB1D888B998BAA8BBB8B8C839D83DF
:10317000AE83BF8389E49EE19B838A8310711460D0
:103180001F291BA3CE01DF91CF911F910F91FF90BB
:10319000BF90AF909F908F900C942E4782E10E9439
:1031A00093494F925F926F927F928F929F92AF92CC
:1031B000BF92CF92DF92EF92FF920F931F93CF9324
:1031C000DF93FC01A4A1B5A11097B1F41686178670
:1031D000108A118A80E0DF91CF911F910F91FF90AB
:1031E000EF90DF90CF90BF90AF909F908F907F90A7
:1031F0006F905F904F9008958D919C91119795A33A
:1032000084A31296CD90DD90ED90FC9015971896C2
:103210008D919C91199716962D913C9117971A961E
:103220004C911A97609154027091550211967C93BB
:103230006E93B0935502A0935402A42FA17040FD49
:103240003AC040A151A162A173A12C01612C712C43
:10325000440D551D661D771D40A351A362A373A3A2
:1032600035872487A901032E000C660B770B4C0DC4
:103270005D1D6E1D7F1D408751876287738794A5F2
:1032800095FF2BC04481558166817781C40ED51E80
:10329000E61EF71EC482D582E682F78246865786EE
:1032A000608A718A232B09F46EC0906494A7A111DF
:1032B0000EC081E090CF40A151A162A173A1709591
:1032C0006095509541955F4F6F4F7F4FBECFA58D55
:1032D000B68D878D8C9381E07ECF4685578560893A
:1032E000718984809580A680B7800289138924899A
:1032F0003589C00ED11EE21EF31EC28AD38AE48A2B
:10330000F58AC482D582E682F782892F807194FD86
:1033100004C0440C551C661C771C46865786608A80
:10332000718A452B462B472B11F2EF019F2DC814B4
:10333000D904EA049B0997FD32C0AA2309F4B9CF46
:10334000811123C0ED8DFE8D8F8D80830E947A299F
:103350000E891F89288D398DDC01CB01800F911FCB
:10336000A21FB31FCC80DD80EE80FF802F2DC816FA
:10337000D906EA062B0B27FF9CCF8C839D83AE8357
:10338000BF8381E028CF9F7B91CF0E947A29292F8C
:10339000681579058A052B0927FDF7CFD3CFC81803
:1033A000D908EA08FB0890E8C91691ECD9069FEF06
:1033B000E906F9062CF084829582A682B782BDCFF9
:1033C00088E10E9493490F931F93CF93DF938C0161
:1033D0006AED77E1DC018C910E94CB31EC010E9417
:1033E0004732FC01D80114964D915D916D917C910D
:1033F0001797428353836483758318968D919C91AC
:10340000199791878087892B09F466C0D8011C968B
:103410008D919C911D97978386831286F8948CA535
:10342000282F217081FB992790F9291729F091E025
:1034300089279285916092874E855F856889798911
:10344000452B462B472B59F583FD19C08CA71182BC
:1034500010828CA19DA1892BA9F1AEA1BFA1ED93F2
:10346000FC93FFA3EEA3CE010E94D118CE010E94CF
:103470002E477894DF91CF911F910F9108958091FD
:1034800054029091550291838083F0935502E0930A
:1034900054027894DF91CF911F910F9108958CA7DA
:1034A000118210828CA19DA1892B89F0AEA1BFA1B0
:1034B000ED93FC93FFA3EEA37894DF91CF911F913E
:1034C0000F910895FFA3EEA3FDA3ECA3CCCFFFA320
:1034D000EEA3FDA3ECA3CDCF87E10E9493498F9289
:1034E0009F92AF92BF92CF92DF92EF92FF920F9393
:1034F0001F93CF93DF93EC01EA8DFB8D8C8D80833E
:103500000E947A290E891F89288D398DAB01BC0153
:10351000400F511F621F731F8E859F85A889B9892F
:103520000197A109B10980FF19C02CA524FD1AC07B
:103530008E879F87A88BB98B4C835D836E837F8337
:1035400081E0DF91CF911F910F91FF90EF90DF907D
:10355000CF90BF90AF909F908F9008950097A10556
:10356000B10571F1C884D984EA84FB840A891B8976
:103570002C893D890C0D1D1D2E1D3F1D0A8B1B8B9B
:103580002C8B3D8BEC85FD854F01FF0FAA08BB08F6
:10359000C80CD91CEA1CFB1CC886D986EA86FB86A7
:1035A000E32F041715072607E70BE7FDC1CF8E872A
:1035B0009F87A88BB98B0C831D832E833F83C0CF3D
:1035C0004C835D836E837F83CE01DF91CF911F910A
:1035D0000F91FF90EF90DF90CF90BF90AF909F90B2
:1035E0008F900C94D11880914502909146029F9340
:1035F0008F9321E030912802311101C020E01F9209
:103600002F9320914A022F93209149022F932091CA
:1036100048022F93209147022F9321E0892B09F430
:1036200020E01F922F9382E095E19F938F930E9459
:10363000973F8DB79EB70C960FB6F8949EBF0FBEFE
:103640008DBF08950E947A299F938F937F936F93E4
:1036500088E095E19F938F930E94973F0F900F9082
:103660000F900F900F900F9008950F931F93CF938B
:10367000DF938C018091450290914602892B09F0DD
:103680004BC06091440270E0623071052CF482E01E
:103690008093440262E070E0E0914002F0914102C8
:1036A0004DB75EB741505F4F44275A959F01C0E028
:1036B000D0E0C901860F971F4817590730F12196AE
:1036C0009C01C115A4E0DA07A1F78E1B9F0B0E9495
:1036D000743FD0934602C093450290934302809377
:1036E00042020E94E331F80180819181A281B3817D
:1036F0008093470290934802A0934902B0934A02F4
:10370000DF91CF911F910F910895209711F0C9017A
:10371000DCCF80E10E9493498DE00E949349CF93D2
:1037200020913E0230913F02232B91F4FC01C08195
:103730008C2F90E0880F991F880F991F0E94743F6B
:1037400090933F0280933E02C0933D02CF91089533
:103750008AE00E949349CF93DF93EC0198814091D6
:103760003D02A0913E02B0913F020BC0FD0184E0FA
:10377000989FE00DF11D1124208131812617370714
:1037800041F09F5F941790F380E090E0DF91CF913C
:103790000895988382819381DF91CF91089582303B
:1037A000910589F05CF08330910529F0049771F45C
:1037B0008DE10E9493498EE10E949349019739F46B
:1037C0008FE10E9493498CE10E94934908950895E6
:1037D00080912802882329F0823011F0109228026B
:1037E000089582E00E94934988E00E949349CF9215
:1037F000DF92EF92FF92FC014081518162817381DF
:103800002481E7E5F4E185919591A591B49148175C
:1038100059076A077B0770F56A017B01C20ED11C4C
:10382000E11CF11C8C159D05AE05BF0500F5841B40
:1038300090E09A012A5B384F3F932F939F938F9389
:103840007F936F935F934F938AE195E19F938F935B
:103850000E94973F8DB79EB70A960FB6F8949EBF09
:103860000FBE8DBFFF90EF90DF90CF900895822F15
:1038700090E0DFCF80E090E0DCCFCF92DF92EF925C
:10388000FF920F931F930E947A299F938F937F93A8
:103890006F9301E010E020E030E0C0904F02D09044
:1038A0005002E0905102F09052026C157D058E0599
:1038B0009F0518F000E010E0980180914B02909174
:1038C0004C02A0914D02B0914E02800F911FA21F99
:1038D000B31FBF93AF939F938F938EE095E19F9318
:1038E0008F930E94973F8DB79EB70A960FB6F894B4
:1038F0009EBF0FBE8DBF1F910F91FF90EF90DF9085
:10390000CF9008958EE00E949349CF93DF93EC010E
:103910006A8D662309F453C0FC0150E031E020E0D9
:10392000A38DB48D4C91958D942309F0532B2F5F6B
:10393000330F33962613F4CF2C85922F952729F039
:103940008D85852780959823D9F4888D5D8787FD9F
:1039500003C0815070F1888F4C815D816E817F81C1
:1039600088859985AA85BB85840F951FA61FB71FDB
:103970008C839D83AE83BF8381E0DF91CF910895D7
:10398000982F909529238523822B8C879E859830AC
:10399000E0F621E0290F2E87FE01E90FF11D878750
:1039A0001092260281E0809353028FEF888F5D870B
:1039B000D3CF1092260291E090935302CCCF50E0E7
:1039C000BBCF0F931F93CF93DF938C016DE07DE10D
:1039D000DC018C910E94CB31FC01D80114969C91A2
:1039E000828D9817B8F4292F30E0E901CC0FDD1F44
:1039F0002C0F3D1FEF01C20FD31FF8016485808596
:103A00000E946B306B8F7C8F8D8FDF91CF911F91D8
:103A10000F91089583E20E949349CF93FC01C481E2
:103A2000C930B8F44C2F50E09A01220F331F420FD7
:103A3000531F455E5F4F6DE07DE1FC0180810E9478
:103A40009C31FC01C28F25E83CE133832283CF9176
:103A5000089584E20E949349FC0144815581668166
:103A60007781208580810C945B32EF92FF920F93D7
:103A70001F93CF93DF937C016FEA7DE1DC018C9192
:103A80000E94CB318C010E944732EC01F701848106
:103A90009581A681B7818A839B83AC83BD83808512
:103AA00091859F838E83F89419821882D80151964C
:103AB0008D919C915297892BB9F15396ED91FC9180
:103AC0005497D183C0835496DC93CE93539780E070
:103AD00090E07894892B39F4DF91CF911F910F9169
:103AE000FF90EF900895C8010E94DC46D80112961D
:103AF0008D919C91139787519042F1F08A819B811F
:103B0000AC81BD8122E93FE1F801338322838483C4
:103B10009583A683B783C801DF91CF911F910F9141
:103B2000FF90EF900C942E47F801D48BC38BD28B6F
:103B3000C18B81E090E0CDCF8A819B81AC81BD813A
:103B4000F8014481558166817781272F48175907ED
:103B50006A072B0B27FFD6CF80E20E949349CF92B2
:103B6000DF92EF92CF93DF93EC01488559856A8508
:103B70007B852C858C810E945B326B01E82E45E1B0
:103B800050E06FEA7DE188810E949C31FC01C08693
:103B9000D186E28688899989908B87878C899D89CF
:103BA000AE89BF8983879487A587B68782E99FE11D
:103BB0009383828368E070E0CF014196DF91CF91DB
:103BC000EF90DF90CF900C942D320F931F93FC0158
:103BD000A489B58986898C9393A181E0892783A3E1
:103BE000448155816681778180FF12C000851185EF
:103BF00022853385400F511F621F731F82FD12C043
:103C0000448355836683778381E01F910F910895E4
:103C10000485158526853785400F511F621F731F48
:103C200082FFEECF0089118922893389872F4017BF
:103C300051076207830B87FDE3CF89E49EE19383FD
:103C40008283B901A801448355836683778381E029
:103C50001F910F9108950895FC018081A481B58181
:103C600040855185628573859FB7F894813061F0F6
:103C7000823019F04C939FBF08954D935D936D93DF
:103C80007C9313979FBF089511965C934E939FBFAB
:103C900008958F929F92AF92BF92CF92DF92EF9250
:103CA000FF921F93CF93DF93EC01EF8CF8A0E11408
:103CB000F10409F4F0C0F7018081918198A38F8FFE
:103CC00086809780A084B18411E081149104A104BE
:103CD000B10409F4A1C06C897D898E89412F0E94AD
:103CE000A4308091540290915502F7019183808312
:103CF000F0925502E092540281149104A104B1049F
:103D0000E9F08B8D9C8DAD8DBE8D88169906AA0627
:103D1000BB06A0F44F89588D698D7A8D41155105E8
:103D20006105710509F45BC08C819D81AE81BF8105
:103D3000480F591F6A1F7B1F166022C08BA131E0FC
:103D400081149104A104B10409F068C084FB99278F
:103D500090F921E09227391709F443C04F89588D13
:103D6000698D7A8D4115510561057105D1F18C81FF
:103D70009D81AE81BF81480F591F6A1F7B1F146050
:103D8000EF8DF8A1309709F077C02BA1488B598BA4
:103D90006A8B7B8B2071212B2BA311FF5FC0880DB9
:103DA000991DAA1DBB1D12FD52C025EE3DE13B83AE
:103DB0002A838C839D83AE83BF8388869986AA8657
:103DC000BB868B8D9C8DAD8DBE8D88199909AA09F6
:103DD000BB098C879D87AE87BF8781E011C01260C9
:103DE0008BA1EF8DF8A13097D9F4188A198A1A8A15
:103DF0001B8A8071812B8BA3812F827011FD34C0AF
:103E0000DF91CF911F91FF90EF90DF90CF90BF9007
:103E1000AF909F908F90089510E05DCF30E096CFE7
:103E20004281538164817581488B598B6A8B7B8B6E
:103E30008071912F9460892B8BA311FF0FC08C810F
:103E40009D81AE81BF81880D991DAA1DBB1D2B2FA1
:103E500084179507A607270B27FDA7CF4C835D8303
:103E60006E837F8381E0CCCF40E050E0BA018C814B
:103E70009D81AE81BF8193CFC280D380E480F580E5
:103E8000872F4C155D056E058F0987FD07C08BA137
:103E9000B701A601C9CF85E10E94934983E10E9441
:103EA0009349FC0185818F9384818F9380811F9238
:103EB0008F938CEF94E19F938F930E94973F0F9085
:103EC0000F900F900F900F900F900895DC012C91A0
:103ED0001496ED91FC9115973FB7F8942130E9F0D5
:103EE0002230B1F0808190E0A0E0B0E03FBFBF930E
:103EF000AF939F938F9386EF94E19F938F930E944C
:103F0000973F0F900F900F900F900F900F90089584
:103F100080819181A281B381E9CF80819181A0E0EC
:103F2000B0E0E4CF0F931F93CF93DF93FC01A189FF
:103F3000B2898D919C911197928B818B16968D9160
:103F40009C911797C085D185228521113FC02FB73D
:103F5000F894AC015527598348832FBF2091540210
:103F60003091550211963C932E93B0935502A09335
:103F70005402A189B289109759F527853089821793
:103F8000930741F083859485A585B6850097A105A3
:103F9000B10531F480E0DF91CF911F910F91089529
:103FA0004481558166817781840F951FA61FB71FB5
:103FB00084839583A683B78387E190E2938382838A
:103FC00081E0DF91CF911F910F9108958883C6CF33
:103FD00012964D915D916D917C9115972785308951
:103FE0008217930741F083859485A585B685009750
:103FF000A105B10551F4448355836683778381E03D
:10400000DF91CF911F910F91089504811581268131
:104010003781800F911FA21FB31F2B2F8417950785
:10402000A607270B27FFE7CF80E20E94934981E292
:104030000E949349BF92CF92DF92EF92FF920F932B
:104040001F93CF93DF93EC016CEA7DE288810E949D
:10405000CB31BC8008851985FC01228120FD3BC045
:10406000FC01D0810E947A296B017C01F0E8CF0E1F
:10407000F8E3DF1EF1E0EF1EF11CC701B6010E945C
:104080003E30D093BB0084E88093BC00C701B601EA
:104090000E942230BB2079F0CB2DD4E8F801819129
:1040A0008F018093BB00D093BC00C701B6010E9472
:1040B0002230C15099F784E98093BC0080E090E001
:1040C000DF91CF911F910F91FF90EF90DF90CF90F4
:1040D000BF900C94CF1BE080F180F7016485C7018D
:1040E0000E945C2D6C01892B79F4E801CB0DD11D68
:1040F00008C0F80161918F01C7010E94ED2C009763
:1041000041F4C017D107A9F7C7010E94CA2CC60104
:10411000D7CF6C01C7010E94CA2CC601D1CF4F92E4
:104120005F926F927F928F929F92AF92BF92CF9247
:10413000DF92EF92FF920F931F93CF93DF93462E60
:10414000542E652E722E7801FC01228120FD7DC047
:10415000FC01C0800E947A294B015C01F0E88F0EBF
:10416000F8E39F1EF1E0AF1EB11CC501B4010E942F
:104170003E30C092BB0084E88093BC00C501B4010E
:104180000E9422300FEF040D4420A9F0C52DD62D3A
:1041900010E00F5F1F4F0C0F1D1F94E8D92E89915F
:1041A0008093BB00D092BC00C501B4010E942230B4
:1041B0000C171D07A1F7C501B4010E943E308C2DDC
:1041C00081608093BB0084E88093BC00C501B4018A
:1041D0000E942230DFEFD70D772009F18701CD2F24
:1041E00084ECD82ECC2369F0D092BC00C501B40178
:1041F0000E9422308091BB00F80181938F01C15051
:1042000099F7C7018D0F911DEC0184E88093BC00E4
:10421000C501B4010E9422308091BB00888384E9EB
:104220008093BC0080E090E0DF91CF911F910F91CF
:10423000FF90EF90DF90CF90BF90AF909F908F90C6
:104240007F906F905F904F900895C081D1816623D9
:10425000E9F06C85CE010E945C2D6C01892B09F57B
:10426000052D162D4A94A42CB12CFFEFAF1ABF0ACE
:10427000A00EB11EF80161918F01CE010E94ED2CBC
:104280006C01892B71F4A016B106A1F76C856160F1
:10429000CE010E945C2D6C01892B41F024E0C22EDE
:1042A000D12CCE010E94CA2CC601BECF8FEF870D44
:1042B0007720B9F35701A80EB11C69857A858B85E3
:1042C00041E00E94553008E010E06D857E858F85C5
:1042D00098890E94B02C6E817F81888541E00E9480
:1042E00055306D857E858F8598890E94B02C110F81
:1042F000E985FA8590818B85892391E009F490E026
:10430000192B688179818A8140E00E94B330015085
:10431000E1F6EA14FB04D9F46D857E858F859889D2
:104320000E94B02C6E817F81888541E00E945530CB
:104330006D857E858F8598890E94B02C68817981F2
:104340008A8140E00E94B330F7011083AACF6B81CD
:104350007C818D8140E00E94B3306D857E858F85A4
:1043600098890E94B02C6E817F81888541E00E94EF
:1043700055306D857E858F8598890E94B02C688127
:1043800079818A8140E00E94B330F70111937F0167
:1043900094CFAF92BF92CF92DF92EF92FF920F93A2
:1043A0001F93CF93DF93CDB7DEB77C01ADB6BEB61A
:1043B000FC01C0806CEA7DE28C2D0E94CB31F701BC
:1043C000648140855185D4842DB73EB72D193109BC
:1043D0000FB6F8943EBF0FBE2DBFEDB7FEB73196B6
:1043E0007F018F012D2D0E948F200E94CF1BFF92F5
:1043F000EF921F92DF921F92CF9282ED94E19F93F2
:104400008F930E94973F2DB73EB7285F3F4F0FB65F
:10441000F8943EBF0FBE2DBF0FB6F894BEBE0FBEC0
:10442000ADBEDF91CF911F910F91FF90EF90DF9084
:10443000CF90BF90AF900895FC01868580FF06C0A5
:10444000218932892F5F3F4F328B218B81FF0DC035
:10445000DF01A95BBF4F0D90BC91A02D2C91DF0116
:10446000A75BBF4F9C91922339F48160868710929D
:10447000260281E0809359024481558166817781CB
:1044800080859185A285B385840F951FA61FB71FD0
:1044900084839583A683B78381E00895CF93DF93C8
:1044A000FC0180859185A285B38521892223F1F0C5
:1044B000258936892F5F3F4F368B258B880F991FB3
:1044C000AA1FBB1F880F991FAA1FBB1F44815581BC
:1044D00066817781840F951FA61FB71F84839583FC
:1044E000A683B78381E0DF91CF910895C485D585F8
:1044F00038812685232351F721E0218B1092260253
:1045000020935802880F991FAA1FBB1F880F991F5D
:10451000AA1FBB1F880F991FAA1FBB1FD7CFCF93FE
:10452000DF93FC0182859385A485B585218520FFD5
:1045300020C0228D338D2F5F3F4F338F228F23E09A
:104540002187880F991FAA1FBB1F880F991FAA1FB9
:10455000BB1F4481558166817781840F951FA61FFB
:10456000B71F84839583A683B78381E0DF91CF91C2
:104570000895C289D38938812489232351F721E002
:1045800021871092260220935702880F991FAA1F95
:10459000BB1F880F991FAA1FBB1F880F991FAA1F37
:1045A000BB1FD7CFFC0192899160928B109226029B
:1045B00081E08093560280E008952F923F924F92BF
:1045C0005F926F927F928F929F92AF92BF92CF92A3
:1045D000DF92EF92FF920F931F93CF93DF931F927F
:1045E0001F92CDB7DEB73C0164E674E2FC01808126
:1045F0000E94CB314C01FC01868581FF36C0F894C6
:104600000E947A299B01AC01F401E95BFF4F019004
:10461000F081E02D9081F401E75BFF4F80818923D9
:104620007894882309F448C0A12CB12C6501E12CB1
:10463000F12C8701F3016081C4010F960E949F381D
:104640000F900F90DF91CF911F910F91FF90EF90FE
:10465000DF90CF90BF90AF909F908F907F906F90A2
:104660005F904F903F902F9008950E947A291B01F0
:104670002C01AE014F5F5F4F68E1F40184859585A1
:104680000E948E3A09811A81102701270E947A29F7
:1046900003FD0CC0A12CB12C65017B018C01E2183B
:1046A000F30804091509A2019101C4CF24E0A22E48
:1046B000B12CC12CD12CF1CF64E0A62EB12CC12C91
:1046C000D12CB5CF0F931F93CF93DF938C0164E66A
:1046D00074E2DC018C910E94CB31EC01F801808501
:1046E0009185A285B385FE01E15BFF4F80839183B5
:1046F000A283B383892B8A2B8B2B59F43597118294
:104700001082C45BDF4F1882DF91CF911F910F9110
:104710000895F80184819581A681B781FE01ED5A43
:10472000FF4F80839183A283B3836CEF7DE3D80135
:104730001C968C910E94CB31FE01E65BFF4F91836A
:1047400080833396D80150968C9150978083319610
:1047500054968C918083C45BDF4F86E08883DF9121
:10476000CF911F910F9108959F92AF92BF92CF92D8
:10477000DF92EF92FF920F931F93CF93DF93FC0191
:10478000908066E775E2892D0E94CB31EC01F894A8
:104790000E947A299B01AC01EC85FD8590818E8574
:1047A000892378948823B9F0A12CB12C6501E12CE0
:1047B000F12C8701692DCE0143960E949F38DF912D
:1047C000CF911F910F91FF90EF90DF90CF90BF900E
:1047D000AF909F90089584E0A82EB12CC12CD12CCD
:1047E000E6CF0F931F93CF93DF938C0166E775E2BB
:1047F000FC0180810E94CB31EC0166EC70E3F80192
:1048000084810E94CB31C55BDF4F99838883DF9120
:10481000CF911F910F9108959F92AF92BF92CF9227
:10482000DF92EF92FF920F931F93CF93DF93FC01E0
:1048300090806DEE75E2892D0E94CB31EC01F894E9
:104840000E947A299B01AC01EA89FB8990818C89BD
:10485000892378948823B9F0A12CB12C6501E12C2F
:10486000F12C8701692DCE0148960E949F38DF9177
:10487000CF911F910F91FF90EF90DF90CF90BF905D
:10488000AF909F90089584E0A82EB12CC12CD12C1C
:10489000E6CF0F931F93CF93DF938C016DEE75E2FC
:1048A000FC0180810E94CB31EC0166EC70E3F801E1
:1048B00084810E94CB31C05BDF4F99838883DF9175
:1048C000CF911F910F9108950F931F93CF93DF9373
:1048D0008C0147E550E064E674E2FC0180810E94AF
:1048E0009C31EC018CE192E29B838A836CEA7DE24D
:1048F000F80184810E94CB319D878C87DF91CF9115
:104900001F910F9108950F931F93CF93DF938C0105
:104910004BE450E063E874E2FC0180810E949C312A
:10492000EC0182ED92E29B838A836CEA7DE2F801DE
:1049300084810E94CB319D878C87DF91CF911F911D
:104940000F9108950F931F93CF93DF938C0164E62B
:1049500074E2FC0180810E94CB31EC010E94DC46B4
:104960008E858E7F8E87F80184819581A681B7819F
:104970000097A105B105F1F088879987AA87BB87C1
:10498000188A1F861A8A198A1B8AF8940E947A2923
:10499000088519852A853B85DC01CB01800F911F95
:1049A000A21FB31F8C839D83AE83BF83CE010E9461
:1049B0002E477894DF91CF911F910F9108950F9317
:1049C0001F93CF93DF938C0166E775E2FC01808132
:1049D0000E94CB31EC010E94DC46198AF8018481E7
:1049E0009581A681B78188879987AA87BB87892BFC
:1049F0008A2B8B2BD1F01C8A1B8A1E8A1D8A1F8A48
:104A0000F8940E947A29088519852A853B85DC015E
:104A1000CB01800F911FA21FB31F8C839D83AE8398
:104A2000BF83CE010E942E477894DF91CF911F91D2
:104A30000F9108950F931F93CF93DF93FC01C081D3
:104A4000D1811281038164E674E28C2F0E94CB3104
:104A5000FC01ED5AFF4F23812F9322812F93218157
:104A60002F9320812F933797808182FB882780F9AD
:104A70001F928F930F931F93DF93CF938EEA94E14E
:104A80009F938F930E94973F8DB79EB70C960FB65A
:104A9000F8949EBF0FBE8DBFDF91CF911F910F91F4
:104AA0000895EF92FF920F931F93CF93DF93EC0142
:104AB0000E94642464E674E288810E94CB318C01F8
:104AC0007C0187E4E80EF11C61E088850E946B3070
:104AD000F70160837183828382E0F8018687DF912A
:104AE000CF911F910F91FF90EF9008950F931F9317
:104AF000CF93DF938C014DE450E066E775E2FC0153
:104B000080810E949C31EC018EE492E29B838A8337
:104B1000198A61E971E4F80184810E94CB31988B94
:104B20008F8760E0F80180850E946B306C877D87FD
:104B30008E87DF91CF911F910F9108950F931F934F
:104B4000CF93DF938C016DEE75E2FC0180810E94B2
:104B5000CB31EC010E94DC4619861E861F86188A1E
:104B6000198AF80184819581A681B7818A879B87FC
:104B7000AC87BD87892B8A2B8B2B29F16D897E8988
:104B80008F8940E00E94A430198E188E1B8E1A8ED9
:104B90001C8EF8940E947A290A851B852C853D85F8
:104BA000DC01CB01800F911FA21FB31F8C839D835B
:104BB000AE83BF83CE010E942E477894DF91CF91C0
:104BC0001F910F9108956D897E898F8941E0DF9152
:104BD000CF911F910F910C94A4300F931F93CF93FB
:104BE000DF93EC0142E550E06DEE75E288810E94B2
:104BF0009C318C018FE892E2F801938382838C814F
:104C00009FEF980F9430C8F4F801808761E08885A1
:104C10000E946B30F801628B738B848B60E08C8513
:104C20000E942228F801658B768B878B41E0DF910B
:104C3000CF911F910F910C94A4308EE20E94934962
:104C40002F923F924F925F926F927F928F929F929C
:104C5000AF92BF92CF92DF92EF92FF920F931F938A
:104C6000CF93DF9300D01F921F92CDB7DEB73C01E8
:104C700063E874E2FC0180810E94CB314C018BE13E
:104C80008B838E010C5F1F4F21E0AE014D5F5F4FA4
:104C900061E0F401848595850E948F200E94CF1BDE
:104CA0008C818F7031F0F401858996890196968BFD
:104CB000858B80E78D830E947A291B012C018E0150
:104CC0000F5F1F4F22E0AE014B5F5F4F61E0F401C9
:104CD000848595850E948F200E94CF1B0E947A298F
:104CE00029812F71A22EB12CBA2CAA242A81A22AA2
:104CF0000B2C000CCC08DD087B018C01E218F308BA
:104D000004091509A2019101F3016081C4014396D0
:104D10000E949F380F900F900F900F900F90DF918F
:104D2000CF911F910F91FF90EF90DF90CF90BF90A8
:104D3000AF909F908F907F906F905F904F903F903B
:104D40002F9008952F923F924F925F926F927F9291
:104D50008F929F92AF92BF92CF92DF92EF92FF928B
:104D60000F931F93CF93DF9300D01F921F92CDB765
:104D7000DEB73C0168EF7AE3FC0180810E94CB3111
:104D80004C018AE38B838E010C5F1F4F21E0AE0143
:104D90004D5F5F4F61E0F401848595850E948F200F
:104DA0000E94CF1B8C8184FF06C0F40185899689FF
:104DB0000196968B858B82E78D830E947A291B0151
:104DC0002C018E010F5F1F4F22E0AE014B5F5F4F42
:104DD00061E0F401848595850E948F200E94CF1B9D
:104DE0000E947A2929812F71A22EB12CBA2CAA24D3
:104DF0002A81A22A0B2C000CCC08DD087B018C0137
:104E0000E218F30804091509A2019101F301608178
:104E1000C40143960E949F380F900F900F900F90FF
:104E20000F90DF91CF911F910F91FF90EF90DF9046
:104E3000CF90BF90AF909F908F907F906F905F903A
:104E40004F903F902F9008950F931F93CF93DF9330
:104E5000EC01F8940E947A29088519852A853B85FA
:104E6000DC01CB01800F911FA21FB31F8C839D8398
:104E7000AE83BF83CE010E942E477894DF91CF91FD
:104E80001F910F9108950F931F93CF93DF938C0180
:104E900063E874E2FC0180810E94CB31EC010E9446
:104EA000DC461A8AF80184819581A681B781009732
:104EB000A105B10529F4DF91CF911F910F910895BC
:104EC00088879987AA87BB871C8A1B8A1E8A1D8AA6
:104ED0001F8A1F861E86198A188ACE01DF91CF91FC
:104EE0001F910F910C942427B0990FC080915A0202
:104EF00090915B0201961092050210920402909329
:104F000007028093060281E0089581E086BB8091CC
:104F10005A0290915B02019690935B0280935A0231
:104F200020E030E8309305022093040290930702BA
:104F30008093060281E00895CF93FC01C08166EC66
:104F400070E38C2F0E94CB31FC0187858F9386857F
:104F50008F9385858F9384858F9382A586958170A5
:104F60001F928F931F92CF9386E994E19F938F9323
:104F70000E94973F8DB79EB70A960FB6F8949EBFD2
:104F80000FBE8DBFCF910895FF920F931F93CF93C4
:104F9000DF938C0166EC70E3FC0180810E94CB31D1
:104FA000EC010E94DC468AA58C7FF82E8AA71C861D
:104FB0001D861E861F861D8E1C8EF8018485958594
:104FC000A685B785892B8A2B8B2B31F4DF91CF9166
:104FD0001F910F91FF9008956CEF7DE384810E94F3
:104FE000CB319D8F8C8FF80180858BA784858CA712
:104FF00080899189A289B3898C839D83AE83BF8385
:1050000080899189A289B389888F998FAA8FBB8F54
:1050100084899589A689B7898C8B9D8BAE8BBF8B34
:10502000808D8DA71EA68CE691E39B838A838F2DAE
:1050300085608AA7CE01DF91CF911F910F91FF90DC
:105040000C942E47803680F5E82FE695E695E69598
:10505000F0E0EE0FFF1FEE5CFA4EA591B4911097B1
:1050600019F1877021E030E0A90102C0440F551FFB
:105070008A95E2F7CA014FB7F89411962C911197CF
:10508000282B12963C91129761110CC0582F509505
:10509000352312963C93129711962C9311974FBF7C
:1050A000BD010895382BF5CF89E30E9493491F92E3
:1050B0000F920FB60F9211240BB60F92EF92FF9240
:1050C0000F931F932F933F934F935F936F937F9310
:1050D0008F939F93AF93BF93CF93DF93EF93FF9300
:1050E0000DC07A0180918400909185008E199F09EE
:1050F00097FD7CC07894B2999AC0F894C09122022E
:10510000D0912302EA81FB81309709F0ACC0EA8D8F
:10511000FB8D2C8D20838E859F85019709F4D2C04D
:105120009F878E8788859985AA85BB854C815D81FF
:105130006E817F81480F591F6A1F7B1F4C835D83DF
:105140006E837F8320832CA526FF0EC00C851D85D2
:10515000012E000C220B330B800F911FA21FB31FD7
:1051600088879987AA87BB87E881F981048115819F
:1051700026813781872F401751076207830B87FDF0
:10518000B0CF7801F0932302E0932202A091240291
:10519000B091250214960D911D912D913C91179778
:1051A000872F401751076207830B87FFFD01DF013F
:1051B0000190F081E02D0481158126813781872FB0
:1051C000401751076207830B87FFF1CFF983E8830C
:1051D000CD93DC93D0932502C09324028091840068
:1051E000909185008E199F0997FF84CF863A9F4F33
:1051F0000CF07BC0F0928900E0928800FF91EF9163
:10520000DF91CF91BF91AF919F918F917F916F91DE
:105210005F914F913F912F911F910F91FF90EF90D0
:105220000F900BBE0F900FBE0F901F901895F89423
:1052300080918400909185009701281B390B2038BC
:10524000314C0CF44BC02091270227FD29C09C0152
:105250002854344F30938B0020938A0024E026BBDF
:105260007C01F394C7CFCE0119954C815D816E818D
:105270007F81811179CFE881F981E480F580F09315
:105280002302E09322028091240290912502C81704
:10529000D90709F027CFF0932502E093240222CF0B
:1052A00020912602209327029C01205C304E3093EF
:1052B0008B0020938A0024E026BB90938900809382
:1052C000880010CFCE010E94D118EA8DFB8D9C8DF5
:1052D00090834C815D816E817F81CBCF20912802AC
:1052E0002111B1CF87E30E9493497894B2999FCF5F
:1052F000F894F8CE2FB7F8946091840070918500EF
:1053000080915A0290915B02B09902C02FBF08951C
:105310002FBF7F3FE1F30196089578940E94AC4738
:105320002FEF260F6623C1F0FC018FEF9FEF319125
:105330008327082E8295807F8025092E982F8295BD
:105340008F700826869598278927880F880F880FE1
:105350008025215060F708958FEF9FEF0895CF9338
:10536000DF93FC0184819581A681B78144895589A9
:1053700066897789C58DD68D3881C42FC170278DF8
:10538000232331E009F430E0C31761F04F5F5F4F32
:105390006F4F7F4F448B558B668B778B808F918FB0
:1053A000A28FB38F4089518962897389272F48174B
:1053B00059076A072B0B27FF18C0248D2160248F03
:1053C0004485558566857785840F951FA61FB71F71
:1053D000808B918BA28BB38B1092260281E08093FD
:1053E0005C0284819581A681B78140855185628563
:1053F0007385840F951FA61FB71F84839583A6838B
:10540000B78381E0DF91CF9108950F931F93CF93DE
:10541000DF938C0167E37AE2FC0180810E94CB314B
:10542000EC010E94DC46F80184819581A681B78158
:105430008C839D83AE83BF83408551856285738550
:10544000488759876A877B87448555856685778530
:105450004C875D876E877F87888B998BAA8BBB8BE8
:10546000CE01DF91CF911F910F910C942E470F9396
:105470001F93CF93DF93EC0140E250E067E37AE2C1
:1054800088810E949C318C0168858C810E946B30E0
:10549000F801658F768F878F8FEA99E293838283F5
:1054A000DF91CF911F910F9108954F925F926F926C
:1054B0007F92BF92CF92DF92EF92FF920F931F9352
:1054C000CF93DF93FC01B0806AE27BE28B2D0E94D8
:1054D000CB31EC014D805E806F807884C984DA84A2
:1054E000EB84FC840E947A29DC01CB0184199509A4
:1054F000A609B7098C159D05AE05BF0568F40E9485
:105500007A29DC01CB0184199509A609B7098C1504
:105510009D05AE05BF0598F3CD84DE846881798151
:105520008A81A0918400B09185000B811C819E012D
:10553000215F3F4F7901C20ED31ECE14DF0409F460
:1055400057C0F70191917F0128E013C0F894409172
:10555000840050918500FB01808380837894FA0158
:10556000EA1BFB0BE017F107D8F4990FDA01215081
:1055700021F397FFEBCFF894409184005091850080
:10558000FB0180837894FA01EA1BFB0BE017F1071B
:1055900038F4990FF894FB0180837894DA01E7CF0F
:1055A00040E00E94A4300E947A296D837E838F831D
:1055B000988780E01F928F931F92BF9280EC94E1B6
:1055C0009F938F930E94973F0F900F900F900F9093
:1055D0000F900F90DF91CF911F910F91FF90EF905F
:1055E000DF90CF90BF907F906F905F904F90089525
:1055F0000E947A296D837E838F83988781E0DACF3A
:105600000F931F93CF93DF93EC016AE27BE28881D3
:105610000E94CB310C811D812E813F8148856C8594
:105620007D8517FD14C050E0DA01A00FB11FEC0119
:10563000ED85FE85EA17FB0750F0015F1F4F800FD5
:10564000911FDF91CF911F910F910C941D4E86E217
:105650000E9493496F927F928F92CF92DF92EF9246
:10566000FF92CF93DF93EC0160E08C810E942228AF
:105670003B01882EC884D984EA84FB84D7FC24C0EB
:10568000A601415F5F4F6AE27BE288810E949C3104
:10569000FC01608271828282D686C5868C859D855A
:1056A0009483838388899989AA89BB898187928712
:1056B000A387B487DF91CF91FF90EF90DF90CF90D9
:1056C0008F907F906F90089587E20E949349CF93C7
:1056D000DF93DC011C96ED91FC911D971E969C9129
:1056E0001E971F96CD91DC91509751962C9188E092
:1056F00005C09083660F9083815049F067FFF9CF12
:10570000288360959083660F90838150B9F7DF916D
:10571000CF910895FC011092260281E080935D02F2
:10572000818D8160818F44815581668177818085FB
:105730009185A285B385840F951FA61FB71F84830B
:105740009583A683B78381E008950F931F93CF932A
:10575000DF938C0167EE7BE2FC0180810E94CB31FC
:10576000EC010E94DC46F80184819581A681B78115
:105770008C839D83AE83BF8380859185A285B3850D
:1057800088879987AA87BB87892B8A2B8B2B29F43B
:10579000DF91CF911F910F91089584859585A685FE
:1057A000B7858C879D87AE87BF8780899189A289BD
:1057B000B389888B998BAA8BBB8B84898E8B1F8A2C
:1057C000CE01DF91CF911F910F910C942E47FF9244
:1057D0000F931F93CF93DF93EC01F88483E08F1531
:1057E000E0F04AE150E067EE7BE288810E949C3164
:1057F0008C018AE89BE2F8019383828361E971E47A
:105800008C810E94CB31F801958B848BF08EDF91D7
:10581000CF911F910F91FF90089589E20E949349C3
:10582000EF92FF920F931F93CF93DF938C016CEA5B
:105830007DE2FC0180810E94CB317C0181E190E01E
:105840000E94743FEC01F80184859585A685B78593
:105850008D879E87AF87B88B8089880F8C8761E0A2
:1058600084810E942228688379838A8361E0F80119
:1058700084810E946B306E837F83888761E0F801AA
:1058800080850E9422286B837C838D8361E0F801F0
:1058900080850E946B3069877A878B87F701D18377
:1058A000C083828181608283DF91CF911F910F91AC
:1058B000FF90EF9008958F929F92AF92BF92CF92F8
:1058C000EF920F931F93CF93DF93EC01480159019F
:1058D0001F92EF92BF92AF929F920F937F936F931D
:1058E0005F934F931F92CF9284EB94E19F938F939A
:1058F0000E94973F8DB79EB70E960FB6F8949EBF45
:105900000FBE8DBFE11009C08C859D85AE85BF851A
:1059100088169906AA06BB0688F48F898F5F8F8B3D
:105920009E898917B0F4DF91CF911F910F91EF906D
:10593000CF90BF90AF909F908F900895888999895C
:10594000AA89BB8988159905AA05BB0530F31F8A6A
:10595000EACF809128028111FACF88E20E94934910
:10596000CF92DF92EF92FF926B017C010E947A2925
:10597000C60ED71EE81EF91E0E947A29292F6C1523
:105980007D058E052F0927FDF7CFFF90EF90DF9063
:10599000CF900895CF93DF93EC016B817C818D8153
:1059A00040E00E94B3306D857E858F8598890E9486
:1059B000B02C6E817F81888541E00E9455306D85D5
:1059C0007E858F8598890E94B02C69857A858B8524
:1059D00041E0DF91CF910C945530FF920F931F93CC
:1059E000CF93DF93EC01062F18E082E0F82E1DC064
:1059F000F11029C0000F6D857E858F8598890E94E2
:105A0000B02C6E817F81888541E00E9455306D8584
:105A10007E858F8598890E94B02C688179818A81E2
:105A200040E00E94B3301150B1F007FFE1CF81E0B8
:105A3000F81601F369857A858B8541E00E9455301F
:105A4000FF24F394D7CF6B817C818D8140E00E944D
:105A5000B330F12CCFCFF11006C069857A858B85E4
:105A600041E00E9455306D857E858F8598890E9422
:105A7000B02C6E817F81888541E00E945530E98598
:105A8000FA8510818B8518236D857E858F85988991
:105A90000E94B02C688179818A8140E00E94B330F5
:105AA00081E090E0111102C080E090E0DF91CF91A1
:105AB0001F910F91FF9008951F93CF93DF93EC01F7
:105AC000162F6D857E858F8598890E94B02C6985FB
:105AD0007A858B8541E00E9455306E817F81888573
